:100000000C942A000C9434000C9434000C943400AA
:100010000C9434000C9434000C9434000C94340090
:100020000C9434000C9434000C9434000C944F0065
:100030000C9434000C9434000C9434000C94340070
:100040000C9434000C9434000C9434000C94340060
:100050000C94340011241FBECFE5D8E0DEBFCDBF25
:100060000E9436000C9463000C940000BD9A80EE50
:1000700082BF81E083BF89BF789414BA8FEF81BBC0
:1000800087E090E032E18B30910524F035BB80E0D1
:1000900090E002C085BB019623B322BBF4CF1F9230
:1000A0000F920FB60F9211248F939F9380EE82BF11
:1000B00098B380E2892788BB9F918F910F900FBEE4
:0A00C0000F901F901895F894FFCFE1
:00000001FF
