S01700004763634170706C69636174696F6E332E7372656359
S11300000C9446000C9450000C9450000C94500036
S11300100C9450000C9450000C9450000C9450001C
S11300200C9450000C9450000C9450000C9450000C
S11300300C9450000C9450000C947C000C945000D0
S11300400C9468000C9450000C9450000C945000D4
S11300500C9450000C9450000C9450000C945000DC
S11300600C9450000C9450000C9450000C945000CC
S11300700C9450000C9450000C9450000C945000BC
S11300800C9450000C9450000C94500011241FBE8A
S1130090CFEFD0E1DEBFCDBF0E9452000C948F00A1
S11300A00C94000087B3826887BB14BA8FEF81BBBE
S11300B080E682BF81E083BF9DEF9DBD90E89CBD3B
S11300C01FBC8EBD85E087BF789485B382BBFDCF0E
S11300D01F920F920FB60F9211248F939F9380E675
S11300E082BF98B382E0892788BB9F918F910F903C
S11300F00FBE0F901F9018951F920F920FB60F927C
S113010011248F938DEF8DBD80E88CBD88B380580A
S113011088BB8F910F900FBE0F901F901895F89485
S1050120FFCF0B
S9030000FC
