S01700004763634170706C69636174696F6E362E7372656356
S11300000C9434000C9451000C9451000C94510045
S11300100C9451000C9451000C9451000C94510018
S11300200C9451000C9451000C9451000C948602D1
S11300300C947C020C9451000C9451000C945100CB
S11300400C9451000C9451000C9490020C945100A7
S11300500C9451000C9451000C9451000C945100D8
S11300600C9451000C94510011241FBECFEFD8E022
S1130070DEBFCDBF11E0A0E0B1E0E0E2F6E002C0F7
S113008005900D92AE30B107D9F721E0AEE0B1E0B2
S113009001C01D92A234B207E1F70E941A020C9427
S11300A00E030C9400009BB19F70282F207F922B8D
S11300B09BB95A985B9A32E03A95F1F700C05B9885
S11300C0EFE8F1E03197F1F700C000002BB12F7099
S11300D0F0E18F9FC0011124822B8BB95B9A32E02F
S11300E03A95F1F700C05B988FE99FE00197F1F72B
S11300F000C0000008958FEF8AB98FE295E7019759
S1130100F1F700C0000082E00E94530088E20E94E0
S113011053008CE00E94530086E00E94530081E06B
S11301200E9453008FE99FE00197F1F700C000009F
S1130130089581E00E9453008FE99FE00197F1F751
S113014000C0000080E80E9453000895FC019081E3
S1130150992359F12BB12F70907F922B9BB95A9A06
S11301605B9A82E08A95F1F700C05B988FE891E092
S11301700197F1F700C000004BB1919180E1989F85
S113018090011124942F9F70292B2BB95B9A92E034
S11301909A95F1F700C05B988FE99FE00197F1F71A
S11301A000C0000090819111D5CF0895AF92BF9205
S11301B0CF92EF92FF920F931F93D501FA01EE0FA6
S11301C0FF1F4E0F5F1F440F551F440F551FFB01A8
S11301D0E40FF51F0583168334832383128211826F
S11301E020812E7F2083F086E782C186B386A28693
S11301F021E030E0A90102C0440F551F0A95E2F73F
S11302005C91452B4C93A285B385038002C0220FD9
S1130210331F0A94E2F720953C9123232C932CE07E
S1130220DC0101900D922A95E1F71F910F91FF9047
S1130230EF90CF90BF90AF90089510920F0110925D
S11302400E01FB01EE0FFF1FE60FF71FEE0FFF1F5E
S1130250EE0FFF1FE80FF91FA781B08581E090E042
S11302609C01058002C0220F331F0A94E2F73C91DF
S1130270232B2C932AE12A95F1F700C0A781B0859E
S1130280058002C0880F991F0A94E2F780959C911B
S113029089238C9381858230D9F1833009F46DC030
S11302A0813009F09DC021E030E0038002C0220FBC
S11302B0331F0A94E2F783B190E082239323281733
S11302C03907C9F723B130E028233923821793076C
S11302D009F086C041E050E080910E0190910F0139
S11302E0019690930F0180930E0182E08A95F1F7B5
S11302F000C083B19A01038002C0220F331F0A9405
S1130300E2F790E0822393232817390729F368C082
S113031021E030E0038002C0220F331F0A94E2F789
S113032086B190E08223932328173907C9F726B1B1
S113033030E0282339238217930709F051C041E0A4
S113034050E080910E0190910F01019690930F015E
S113035080930E0122E02A95F1F700C086B19A013C
S1130360038002C0220F331F0A94E2F790E0822335
S113037093232817390729F333C021E030E00380A1
S113038002C0220F331F0A94E2F786B190E0822361
S1130390932328173907C9F726B130E028233923D6
S11303A082179307E9F441E050E080910E019091A7
S11303B00F01019690930F0180930E0182E08A95BC
S11303C0F1F700C086B19A01038002C0220F331FE7
S11303D00A94E2F790E0822393232817390729F33C
S11303E020910E0130910F01ABEABAEA0E94CA02D1
S11303F0969587959283818308959093C500809301
S1130400C40088E98093C10086E08093C200089507
S1130410FC0180818E7F808384E0818354834383C5
S1130420628380EF838B63E370E080E090E00E945E
S1130430FD010895CF93DF93CDB7DEB76C970FB668
S1130440F894DEBF0FBECDBF78940E947B0080E09D
S113045091E00E94A6000F2EF4E2AF2EB12CF02DF5
S1130460CC24C3940F2EF5E2EF2EF12CF02D02E0F4
S113047010E021E030E040E050E066E271E0CE01BF
S113048041960E94D60040E050E06BE270E082E1C9
S113049091E00E9408020E94990087E191E00E9485
S11304A0A6008FEB9DE50197F1F700C0000060E026
S11304B070E086E291E00E941D014AE0BE016F5F98
S11304C07F4F80912701909128010E94D90280ECEE
S11304D00E94530083E091E00E94A600CE010196A1
S11304E00E94A6009FE728E381E0915020408040CD
S11304F0E1F700C00000CFCF1F920F920FB60F920A
S113050011240F900FBE0F901F9018951F920F92F9
S11305100FB60F9211240F900FBE0F901F901895D5
S11305201F920F920FB60F9211248F93AF93BF9324
S1130530CF93DF93EF93FF93809125018F708F30DA
S113054029F4E5E2F1E08081807F8083C5E2D1E097
S11305508881A82FAF70E1E0EA0FEF70807F8E2BC7
S113056088838091C600B0E0AE5EBE4F15968C9332
S1130570F0E0EE5EFE4F858180931301FF91EF91D1
S1130580DF91CF91BF91AF918F910F900FBE0F90DC
S11305901F901895A29FB001B39FC001A39F700D37
S11305A0811D1124911DB29F700D811D1124911D77
S11305B00895BB274A3031F4992322F4BDE2909583
S11305C081959F4F0C94E502BB27FB015527AA2771
S11305D0880F991FAA1FA41710F0A41B83955051CC
S11305E0B9F7A05DAA3308F0A95DA193009779F744
S11305F0B111B1931192CB010C94FE02DC01FC0108
S1130600672F71917723E1F7329704C07C916D9342
S113061070836291AE17BF07C8F30895F894FFCFB3
S11106206F6B0044697374616E63653A200069
S9030000FC
